:100000000C9458000C9480000C9480000C94800098
:100010000C9480000C9480000C9480000C94800060
:100020000C9480000C9480000C9480000C94800050
:100030000C9480000C9480000C9480000C94800040
:100040000C9484030C9480000C94F4030C94CE0361
:100050000C9480000C9480000C9480000C94800020
:100060000C9426040C948000000000002500280059
:100070002B00040404040404040402020202020229
:10008000030303030303010204081020408001025C
:1000900004081020010204081020000000080002DB
:1000A00001000003040700000000000000004505F7
:1000B00011241FBECFEFD8E0DEBFCDBF11E0A0E01E
:1000C000B1E0E2E7FEE002C005900D92AE33B10769
:1000D000D9F722E0AEE3B1E001C01D92A03BB20728
:1000E000E1F710E0C8E5D0E004C02197FE010E94CE
:1000F0003107C735D107C9F70E948D050C94370722
:100100000C94000090E0FC01E656FF4F2491FC01A6
:10011000EA57FF4F3491FC01EE58FF4FE491EE2374
:10012000B1F0222339F02330E9F090F4213001F1CD
:10013000223011F1F0E0EE0FFF1FE859FF4FA591BB
:10014000B4918FB7F894EC913E2B3C938FBF0895F8
:100150002730A9F02830C9F0243061F78091800061
:100160008F7D03C0809180008F7780938000E2CFE5
:1001700084B58F7784BDDECF84B58F7DFBCF809132
:10018000B0008F778093B000D5CF8091B0008F7D85
:10019000F9CF3FB7F8948091F7019091F801A091C1
:1001A000F901B091FA0126B5A89B05C02F3F19F0BF
:1001B0000196A11DB11D3FBFBA2FA92F982F8827E7
:1001C000BC01CD01620F711D811D911D42E0660FC2
:1001D000771F881F991F4A95D1F708958F929F9294
:1001E000AF92BF92CF92DF92EF92FF924B015C01F0
:1001F0000E94C9006B017C010E94C9006C197D0935
:100200008E099F09683E734081059105A8F321E09E
:10021000821A9108A108B10888EEC80E83E0D81EA2
:10022000E11CF11C81149104A104B10429F7FF9091
:10023000EF90DF90CF90BF90AF909F908F900895F8
:10024000AF92BF92CF92DF92EF92FF920F931F93E4
:10025000CF93DF936C017B018B01040F151FEB0122
:100260005E01AE18BF08C017D10759F06991D601D9
:10027000ED91FC910190F081E02DC6010995892B4B
:1002800079F7C501DF91CF911F910F91FF90EF900A
:10029000DF90CF90BF90AF90089508950895FC012E
:1002A000538D448D252F30E0842F90E0821B930BDB
:1002B000541710F0CF96089501970895FC01918D81
:1002C000828D981761F0A28DAE0FBF2FB11D5D9684
:1002D0008C91928D9F5F9F73928F90E008958FEF26
:1002E0009FEF0895FC01918D828D981731F0828DDA
:1002F000E80FF11D858D90E008958FEF9FEF089531
:10030000FC01918D228D892F90E0805C9F4F821B94
:1003100091098F73992708958BEF91E00E948001D6
:1003200021E0892B09F420E0822F089580E090E0FD
:10033000892B29F00E948C0181110C9400000895F2
:10034000FC01A48DA80FB92FB11DA35ABF4F2C914A
:10035000848D90E001968F739927848FA689B78941
:100360002C93A089B1898C91837080648C93938D38
:10037000848D981306C00288F389E02D80818F7DDB
:1003800080830895EF92FF920F931F93CF93DF9393
:10039000EC0181E0888F9B8D8C8D98131AC0E889C1
:1003A000F989808185FF15C09FB7F894EE89FF8990
:1003B0006083E889F98980818370806480839FBF2E
:1003C00081E090E0DF91CF911F910F91FF90EF902E
:1003D0000895F62E0B8D10E00F5F1F4F0F7311273E
:1003E000E02E8C8D8E110CC00FB607FCFACFE88979
:1003F000F989808185FFF5CFCE010E94A001F1CF60
:10040000EB8DEC0FFD2FF11DE35AFF4FF0829FB7EC
:10041000F8940B8FEA89FB8980818062CFCFCF93DC
:10042000DF93EC01888D8823B9F0AA89BB89E8891C
:10043000F9898C9185FD03C0808186FD0DC00FB6C2
:1004400007FCF7CF8C9185FFF2CF808185FFEDCF40
:10045000CE010E94A001E9CFDF91CF91089585EDF3
:100460008093BC008091BC0084FDFCCF1092ED0114
:1004700008952091A001260F3327331F2132310523
:10048000ECF42091ED01FC0190E080E0243069F073
:1004900082E00895A091A0012191AC0140585E4FE7
:1004A000A40FB52FB11D2C930196861798F3809158
:1004B000A001680F6093A00180E0089581E0089595
:1004C0000895E091F1018091F001E81730F4F0E037
:1004D000E05AFE4F808190E008958FEF9FEF0895DE
:1004E0009091F1018091F0012FEF3FEF981748F4C0
:1004F000E92FF0E0E05AFE4F208130E09F5F9093BB
:10050000F101C90108958091F0019091F101891BD9
:10051000990B0895CF92DF92EF92FF920F931F9362
:10052000CF93DF937C01CB018A0120915F012223CD
:1005300089F0EB016B01C40ED51ECC15DD0569F009
:100540006991D701ED91FC910190F081E02DC701F7
:100550000995F3CF642F0E943902C801DF91CF9132
:100560001F910F91FF90EF90DF90CF900895CF9360
:10057000DF931F92CDB7DEB7698320915F012223FD
:10058000F9F02091EE01203258F021E030E0FC013A
:100590003383228390E080E00F90DF91CF91089524
:1005A0008091EF01E82FF0E0E15CFE4F99819083AC
:1005B0008F5F8093EF018093EE0181E090E0ECCFBC
:1005C00061E0CE0101960E943902F7CFCF93FC0182
:1005D000C48121E020935F01C0933E011092EF019E
:1005E0001092EE018385682B88E992E00E94B702A1
:1005F0009091EE01913208F03FC08091ED018111A0
:10060000FCCF82E08093ED0181E08093EC018FEFDD
:100610008093C3011092E5019093E401AFE3B1E050
:10062000E4ECF1E080E098132FC01092E601809195
:10063000E601CC0FC82BC093E6018091EB0181301D
:1006400039F51092EB018091E6018093BB00809117
:10065000BC0083FDF8CF85EC8093BC008091ED0158
:100660008230E1F38091C3018F3F31F08091C3016B
:10067000803211F08091C3011092EF011092EE01CF
:1006800010925F01CF9108952D9121938F5FCBCF71
:1006900085EEE2CF089590E080E008950F931F93D8
:1006A000CF938C01C62F0E94E6026C2F6460C801B4
:1006B0000E94E6026C2F6B7FC8010E94E60283EC69
:1006C00090E00197F1F7CF911F910F9108950F934B
:1006D0001F93CF93DF938C01D62FC42F607F642BA1
:1006E0000E944E0380E1D89FB00111246C2BC801F9
:1006F000DF91CF911F910F910C944E0341E00E9426
:10070000670381E090E008951F920F920FB60F9259
:1007100011242F933F938F939F93AF93BF93809117
:10072000F3019091F401A091F501B091F60130919F
:10073000F20123E0230F2D3758F50196A11DB11DBD
:100740002093F2018093F3019093F401A093F501BB
:10075000B093F6018091F7019091F801A091F90111
:10076000B091FA010196A11DB11D8093F7019093FC
:10077000F801A093F901B093FA01BF91AF919F9155
:100780008F913F912F910F900FBE0F901F90189552
:1007900026E8230F0296A11DB11DD2CF1F920F9202
:1007A0000FB60F9211242F933F934F935F936F9344
:1007B0007F938F939F93AF93BF93EF93FF938BEFB1
:1007C00091E00E94A001FF91EF91BF91AF919F91A5
:1007D0008F917F916F915F914F913F912F910F90EA
:1007E0000FBE0F901F9018951F920F920FB60F9289
:1007F00011242F938F939F93EF93FF93E0910B021C
:10080000F0910C028081E0911102F091120282FDC0
:100810001BC09081809114028F5F8F73209115020D
:10082000821741F0E0911402F0E0E550FE4F958F01
:1008300080931402FF91EF919F918F912F910F90D0
:100840000FBE0F901F9018958081F4CF1F920F92CA
:100850000FB60F9211242F933F934F935F936F9393
:100860007F938F939F93AF93BF93EF93FF93809169
:10087000B900887F803609F44AC0F0F5883209F45F
:10088000A7C018F5803109F49BC0B8F4882309F497
:10089000F9C0883009F494C0FF91EF91BF91AF91F6
:1008A0009F918F917F916F915F914F913F912F9188
:1008B0000F900FBE0F901F901895883109F488C0D3
:1008C000803251F78093C30114C0803409F49DC075
:1008D00040F48033B9F38833F9F68093C30185EC93
:1008E000B0C0803509F485C0883509F496C08834D5
:1008F00099F60E942F02D0CF883909F48CC038F5C0
:10090000883729F050F4883611F0803729F683E0D3
:100910008093ED011092C20157C0883809F47BC062
:10092000803919F0803809F0B7CF8091C201803248
:1009300008F071C0E091C20181E08E0F8093C20186
:100940008091BB00F0E0EE55FE4F80833DC0803BC0
:1009500039F0E0F4803A09F479C0883A09F09CCF84
:1009600084E08093ED011092A1011092A001E0912A
:10097000E901F091EA0109958091A00181110FC070
:1009800081E08093A0011092800109C0803C09F4AD
:10099000A6CF883C09F4A3CF883B09F07DCFE09136
:1009A000A10181E08E0F8093A101F0E0E058FE4F9D
:1009B00080818093BB009091A1018091A00129C00A
:1009C0008091E6018093BB0085EC8093BC0064CFEE
:1009D0009091E5018091E401981758F5E091E501C7
:1009E00081E08E0F8093E501F0E0EC53FE4F8081B3
:1009F000E9CFE091E50181E08E0F8093E5018091E0
:100A0000BB00F0E0EC53FE4F80839091E5018091B4
:100A1000E4019817C8F285E8D8CFE091E50181E0BC
:100A20008E0F8093E5018091BB00F0E0EC53FE4F08
:100A300080838091EC0181115CCF81E08093EB0198
:100A400084EA8093BC001092ED0126CF85EC809360
:100A5000BC001092ED018091C201803230F4E0912F
:100A6000C201F0E0EE55FE4F10826091C20170E0CD
:100A7000E091E701F091E80182EA91E00995109296
:100A8000C2010ACF1092C30134CFEBEFF1E0138221
:100A9000128288EE93E0A0E0B0E084839583A68381
:100AA000B78324E031E03183208325EC30E03587C3
:100AB000248724EC30E03787268720EC30E0318B28
:100AC000208B21EC30E0338B228B22EC30E0358B15
:100AD000248B26EC30E0378B268B118E128E138EF2
:100AE000148EE8E9F2E01382128284839583A68350
:100AF000B78386E191E091838083E4EAF2E0138298
:100B0000128288E291E09183808387E2848380E18E
:100B1000818782E0828713860895CF93DF93CDB7D4
:100B2000DEB7A1970FB6F894DEBF0FBECDBF7894A5
:100B300084B5826084BD84B5816084BD85B58260E2
:100B400085BD85B5816085BD80916E008160809393
:100B50006E001092810080918100826080938100FC
:100B6000809181008160809381008091800081600C
:100B7000809380008091B10084608093B100809167
:100B8000B00081608093B00080917A00846080938F
:100B90007A0080917A00826080937A0080917A0056
:100BA000816080937A0080917A00806880937A00D7
:100BB0001092C100E0910B02F0910C0282E0808360
:100BC000E0910702F09108021082E0910902F09191
:100BD0000A028FEC808310921302E0910F02F091D1
:100BE000100286E08083E0910D02F0910E02808178
:100BF00080618083E0910D02F0910E028081886017
:100C00008083E0910D02F0910E02808180688083E4
:100C1000E0910D02F0910E0280818F7D8083109211
:100C2000F1011092F0011092EF011092EE0110927A
:100C3000ED0181E08093EC011092EB0182E10E94D2
:100C4000820083E10E9482008091B9008E7F8093B0
:100C5000B9008091B9008D7F8093B90088E48093BA
:100C6000B80085E48093BC008DE491E09093EA01A4
:100C70008093E9018EE491E09093E8018093E7018D
:100C80001092A9028091AE02823018F098E0909301
:100C9000A9028093AC0262E370E080E090E00E94E1
:100CA000EE006091AF0284EA92E00E94E60268EEF4
:100CB00073E080E090E00E94EE0060E384EA92E05E
:100CC0000E944E030BE416E4C8010197F1F760E3BC
:100CD00084EA92E00E944E03C8010197F1F760E3B5
:100CE00084EA92E00E944E0383E592E00197F1F7D7
:100CF00060E284EA92E00E944E036091A902606281
:100D000040E084EA92E00E94670384E08093AA02B4
:100D100040E06CE084EA92E00E94670340E061E01A
:100D200084EA92E00E9467030BE31FE1C801019788
:100D3000F1F782E08093AB0240E066E084EA92E063
:100D40000E94670340E062E084EA92E00E94670349
:100D5000C8010197F1F788E08093AF0260E084EA70
:100D600092E00E94E60288EEC82E83E0D82EE12CA5
:100D7000F12C9AE0492E512C612C712C20E0A22EEE
:100D800020E0B22E40E060E884EA92E00E9467032F
:100D90004DE050E060E371E084EA92E00E942001BF
:100DA0002FB7F8946091F3017091F4018091F501EF
:100DB0009091F6012FBFA70196010E940F0719A27B
:100DC0008E010F5D1F4FCA01B901A30192010E945C
:100DD0000F07605DF80162938F0121153105410510
:100DE000510589F7309761F001900020E9F73197BC
:100DF000AF01401B510BB80184EA92E00E94200130
:100E00008CE00E948200A114B10409F4BBCF0E94BF
:100E10008C01882309F4B6CF0E940000B3CFA1E271
:100E20001A2EAA1BBB1BFD010DC0AA1FBB1FEE1F64
:100E3000FF1FA217B307E407F50720F0A21BB30BAF
:100E4000E40BF50B661F771F881F991F1A9469F72B
:100E500060957095809590959B01AC01BD01CF0187
:100E60000895EE0FFF1F0590F491E02D0994F8947A
:020E7000FFCFB2
:100E720000000000C20120014F010F0280015E014B
:100E8200720100000000B7028A024B036002830273
:100E920070026102000000007E0320014B034A033E
:0E0EA20068656C6C6F2C20776F726C64210099
:00000001FF
